:100000000000032099010000A9250000BB25000085
:10001000BD250000BF250000C12500000000000034
:100020000000000000000000000000003D0500008E
:10003000C525000000000000D105000031060000C9
:10004000CB250000CB250000CB250000CB250000F0
:10005000CB250000CB250000CB250000CB250000E0
:10006000CB250000CB250000CB250000CB250000D0
:10007000CB250000CB250000CB250000CB250000C0
:10008000CB250000CB250000CB250000CB250000B0
:10009000CB250000CB250000CB250000CB250000A0
:1000A000CB250000CB250000CB250000CB25000090
:1000B000CB250000CB250000CB250000CB25000080
:1000C000CB250000CB250000CB250000CB25000070
:1000D000CB250000CB250000CB250000CB25000060
:1000E000CB250000CB250000CB250000CB25000050
:1000F000CB250000CB250000CB250000CB25000040
:10010000CB250000CB250000CB250000CB2500002F
:10011000CB250000CB250000CB250000CB2500001F
:10012000CB250000CB250000CB250000CB2500000F
:10013000CB250000CB250000CB250000CB250000FF
:10014000CB250000CB250000CB250000CB250000EF
:10015000CB250000CB250000CB250000CB250000DF
:10016000CB250000CB250000CB250000CB250000CF
:10017000CB250000CB250000CB250000CB250000BF
:10018000CB250000CB250000CB2500009D060000FC
:10019000A9060000CB2500000B490C4808800C483C
:1001A00008800C490C4808800C490D4A0D4B9B1ADD
:1001B00005DD00240859105104349C42FADB0A483A
:1001C00080470A48004700000E20054020C5000077
:1001D00028D9000000200540D201000068A90000D5
:1001E0009801FF1FD802FF1FCD2500006D040000FD
:10040000FFFFFFFFFFFFFFFFFFFFFFFFFEFDFFFFFF
:1004100010B5054C237833B9044B13B10448AFF33E
:1004200000800123237010BDD802FF1F00000000D0
:1004300034A90000084B10B51BB108480849AFF3B8
:1004400000800848036803B910BD074B002BFBD0A0
:10045000BDE81040184700BF0000000034A90000AC
:10046000DC02FF1FD802FF1F00000000154B002B0D
:1004700008BF134B9D46A3F5803A00218B460F46DB
:100480001348144A121A04F0BFF80F4B002B00D087
:1004900098470E4B002B00D0984700200021040005
:1004A0000D000D48002802D00C4803F013FD04F0A5
:1004B0000DF82000290001F0E5FF03F0DBF900BF93
:1004C000000008000000032000000000811400006C
:1004D000D802FF1F1413FF1FD53E000095420000F5
:1004E00080F309887047EFF309807047684680F30E
:1004F000098855480078C00714BF0220032080F304
:1005000014887047DFF844C1EFF305831B0618BF5A
:100510006047EFF31483DB0708BF604700DF7047D5
:10052000DFF82CC1EFF305831B0618BF6047EFF31C
:100530001483DB0708BF604700DF7047EFF30980D3
:10054000816911F8021C99BB90E80F1010B5E047C3
:10055000BDE81040EFF3098C8CE807003D4B93E8B1
:100560000600914208BF704781B11EF0100F06BF10
:100570002CED108A0120002081F820002CE9F00FDA
:10058000C1F824C00CB400F0F9FE0CBC1A60D2F81B
:1005900024C0BCE8F00F92F8200000281ABFBCEC81
:1005A000108A6FF0120E6FF0020E8CF309887047FC
:1005B00010B5294A1268914209D8284C54F82140B4
:1005C00090E80F10A047EFF3098C8CE80F0010BDE6
:1005D00010B500F063FEBDE810401E4B93E8060026
:1005E000914208BF7047EFF3098C1EF0100F06BF51
:1005F0002CED108A0120002081F820002CE9F00F5A
:10060000C1F824C00CB400F0B9FE0CBC1A60D2F8DA
:1006100024C0BCE8F00F92F8200000281ABFBCEC00
:10062000108A6FF0120E6FF0020E8CF3098870477B
:1006300010B500F085FEFFF7CEBF10B500F07EFECE
:1006400000F07EFEFFF7C7BF129B0000A913000059
:10065000C31300000004FF1F00000000FCFFFFFFA9
:1006600008B5006800F026FD18B1BDE8084001F0AB
:1006700029BF08BDC36803484FF000725A60FFF7F6
:10068000EFBF00BFFC02FF1FC36803484FF00062CA
:100690005A60FFF7E5BF00BF0C03FF1F014B18684E
:1006A000FFF7F2BFF402FF1F014B1868FFF7E2BF2C
:1006B000F402FF1F02230370002343604180704750
:1006C00070B50446656885B1204600F0A1F80021A8
:1006D000054600F0A3F9284600F046F901236B70A7
:1006E0000C48294600F07CF8ECE70A4843686BB1F7
:1006F000094E9A7831688B789A4207D900F070F8E1
:10070000336801225A70284600F0DAF90020207080
:1007100070BD00BFE803FF1F0004FF1F426810B553
:1007200062B100F075F80121044600F077F9204627
:1007300000F01AF9204600F0C3F902E042880132C5
:100740004280002010BD08B5002100F021F9BDE86D
:10075000084000F091BD0000426810B57AB100F089
:1007600057F8044600F000F901216170204600F0BE
:1007700055F921460448BDE8104000F031B84288E0
:100780000132428010BD00BFE803FF1F10B5038B8C
:1007900042781943062A04460183438B04D101EAB7
:1007A00003029A4219D105E0052A16D111EA030283
:1007B00013D0428321EA03012183204600F0D4F8BC
:1007C0000123204663700821628B00F030F9214636
:1007D0000248BDE8104000F003B810BDE803FF1F59
:1007E00030B502788C784368013AD2B22BB19D784B
:1007F000A54202D318465B68F8E7022A4B604160C5
:1008000003D803B19960886030BD00238B6030BD90
:1008100002784368013A59684160022A4FF00002A9
:1008200004D809B188605A609A6000E05A6018469E
:1008300070470000034B5A68426000228260586093
:10084000704700BFE803FF1F114BDA6810B50AB10B
:100850009A8A0CE000248A1AC460D86003619A82E4
:10086000848210BD002CF5D0A38A1A4423468A4204
:10087000DC68F7D3C460D860C468036104B1206148
:10088000521A92B28282998A8A1A9A8210BD00BF45
:10089000D003FF1F38B5194DEB68002B2CD0AB8A65
:1008A000013BAB82AA8A002A26D1144BDC681CB318
:1008B000A3683BB161685960616809B18B6062608F
:1008C0000023A3600E482146FFF78AFFA38AAB826C
:1008D0006378042B01BF0B4B1A68E38A9B1808BF8F
:1008E000A38201236370E368EB60002213B1034924
:1008F0001961E2602261D5E738BD00BFD003FF1F58
:10090000E803FF1F4C04FF1F836853B9084B5A6864
:10091000824202D142685A6070471346002AF6D1DB
:10092000704742685A60426802B19360704700BFE6
:10093000E803FF1F38B58468054624B94378012BC6
:100940000ED1084C03E023780BB9A468FBE72846D6
:10095000FFF7DAFF20462946BDE83840FFF740BFE1
:1009600038BD00BFE803FF1F036910B573B1C2684B
:10097000DA60C2683AB1998A848A21449982136103
:100980000023C36000E09A820023036110BD0000D1
:1009900030B50E4BDD78EFF3108272B69A78AA422A
:1009A00007D201329A701A78541CAC4208BF002456
:1009B0001C7062B6AA4204D203EBC203586099606D
:1009C00030BD0220BDE8304000F045BD580CFF1F8F
:1009D000438CF0B5846A9B0804EB83035A0748BF35
:1009E000043B4FF0807203E90600A3F14005A3F138
:1009F0004402A3F10C06002742F8047FB242FAD168
:100A0000C26943F8202CC3784562012B18BF024B02
:100A1000C16218BF2360F0BDA52E5AE290F82020D5
:100A2000436A0AB1603300E020331960704710B5A3
:100A300090F82040436A0CB1603300E0203383E833
:100A4000060010BD08B50448FFF7E2FE034B5860EE
:100A50000223437008BD00BFE803FF1F0004FF1F0F
:100A6000064B1A88064B0120904204D853F8041F05
:100A700011B10130F8E70020704700BF109B000063
:100A8000D80CFF1F30B5002401250470457081701B
:100A900044608460C46004618482C48204834483AB
:100AA00080F820401146BDE83040FFF791BF0000BC
:100AB000024B586002234370704700BF0004FF1FC1
:100AC00070B5044618B9BDE87040FFF7BBBF0B4DC9
:100AD000A278286883789A424FF0010607D9FFF779
:100AE000A9FE2B685E7002236C60637070BD667037
:100AF00021460348BDE87040FFF772BE0004FF1FA7
:100B0000E803FF1F38B50D46014678B14FF6FF7375
:100B10009842074C02D02068FFF796FE23680548EC
:100B20005D70FFF775FE02236060437038BD00BF43
:100B30000004FF1FE803FF1F024B186800B1C078D4
:100B4000704700BF0004FF1F10B588B9174B1B6822
:100B50009970174843689B788B4222D9134C2168BF
:100B6000FFF73EFE236801225A70FFF76BFF18E083
:100B7000104B1B88984216D801380F4B53F8204071
:100B80008CB10A4BA1701B689C42E2D02046FFF753
:100B9000D1FE6378012B04D10548FFF739FEFFF73A
:100BA0008FFF002010BDFF2010BD00BF0004FF1FFD
:100BB000E803FF1F109B0000DC0CFF1F70B5184DF1
:100BC00018B12B68DB78984213D12E68002474701A
:100BD000FFF789FC706200F0D1FB2A681149D378D5
:100BE0002C60013B41F823409462FFF72BFF204625
:100BF00070BD0D4B1B8898420FD8441E094E56F805
:100C0000245055B12846FFF77FFE2846FFF7ACFE7B
:100C1000002046F82400A86270BDFF2070BD00BF10
:100C20000004FF1FDC0CFF1F109B000010B5284BB9
:100C30001A880023934205D22649002041F8230058
:100C40000133F7E7244C254AFF23E370244B1B882C
:100C500063842046234BA3620021FFF713FF224A3F
:100C60000023042111705360204A1170D360136176
:100C700093821F4A1460022262701E4A13705370DE
:100C80001D4B1B78D37000F0B1FB1C4B1A6842F46B
:100C90007F021A601B681B0203F07F43DB43B3FA39
:100CA00083F3174A17481268DBB2C3F10803C2F393
:100CB00002229A42A8BF531C6FF08071026801FAA9
:100CC00003F303F07F4122F07F430B43036010BD29
:100CD000109B0000DC0CFF1F0804FF1F55140000D0
:100CE000189B0000380DFF1FE803FF1FD003FF1FF4
:100CF0000004FF1F580CFF1F1A9B000020ED00E0AE
:100D00000CED00E01CED00E008B500F0FFFA0C4B24
:100D10000028186012DB00F1604000F56440FF22FB
:100D200002701A6853119B0003F1604303F561439D
:100D300002F01F02012101FA02F21A6008BD00BF91
:100D40004404FF1F38B1830704D10378002B18BF78
:100D5000002070470020704700B5DFF80CC000DFAE
:100D6000DFF808C000DFFEE7050F00001D0F0000E0
:100D70000B4A136830B5002433B11D89A94203D34F
:100D80001C46491B1B68F7E789B20360018113B158
:100D90001D89691A19810CB1206030BD106030BD09
:100DA0003C04FF1F431C11D00B4B984211D80B4B36
:100DB0001B684FF47A715A1E01FB0020B0FBF3F060
:100DC0004FF6FE73984228BF184670474FF6FF70E3
:100DD00070474FF6FE70704700093D00149B0000FD
:100DE00038B5084C257855B9FFF720FF064B1B682E
:100DF000FF229A70284600F030FB01232370002068
:100E000038BD00BF3804FF1F0004FF1F10B5EFF30B
:100E100005845CB9EFF31484E40703D4BDE8104003
:100E2000FFF7DEBFDFF808C000DF10BD822010BD75
:100E3000E10D000010B588B0EFF3058434BBEFF38B
:100E4000148404F00304022C0CD0032C16D0012CC3
:100E50001ED008AC84F309880F4C2478E40705D52C
:100E6000022404E00C4C2478E4070BD4032484F31C
:100E70001488BFF34F8FBFF36F8F03E0064C2478C5
:100E8000E40705D4DFF814C000DF02E0822000E0B0
:100E9000FF2008B010BD00BF129B000035110000FC
:100EA000F8B5044650B1026842B18388D81C80B2BC
:100EB000062803D8A06808B1E66826B9802000F0AB
:100EC000CCFA0020F8BD04F11005E162191DC9B289
:100ED000A66360862846FFF7D5FDFFF7C1FD074EE4
:100EE000471E46F82750E0742846FFF7E9FD56F8FC
:100EF0002700034A436A5A63F8BD00BFDC0CFF1F9A
:100F0000590D000008B5FFF717FE18B10138024B64
:100F100053F8200008BD00BFDC0CFF1F08B5FFF729
:100F200011FF38B1C078FFF749FEFF280CBF8120C0
:100F3000002008BD802008BD70B505460C46EFF3C3
:100F4000058686B9EFF31486F60706D4074E367881
:100F50001EB9BDE87040FFF7A3BF28462146DFF861
:100F600010C000DF70BD002070BD00BF4004FF1F37
:100F7000A10E0000830704D128B10369C1681B6872
:100F800003E0002300E003461946184670470000BE
:100F9000F8B5134B1C681F460CB32389013B238112
:100FA0002389E3B90F4B26681D683E6055B12B7845
:100FB000012B07D1284600F0DFFA18B12846214658
:100FC00000F0DEFA6379012B04D120466189FFF736
:100FD000CFFE01E0012323710EB13446E0E7F8BDF6
:100FE0003C04FF1F3C0FFF1F10B504460846DFF806
:100FF0000CC000DF84E80300204610BD750F000020
:1010000038B520B9802000F028FA002038BD0468E7
:10101000002CF7D02578002DF4D1B1F5803F01DB0D
:101020008620F0E7204689B2FFF744FB204638BD12
:1010300010B510F003040CD158B10278022A08D17F
:1010400042884FF6FF739A4205D0FFF767FB2046B0
:1010500010BD802010BD812010BD10B510F003041C
:1010600007D130B10378022B03D1FFF729FB2046CB
:1010700010BD802010BD000070B505460C46EFF392
:10108000058686B9EFF31486F60706D4074E367840
:101090001EB9BDE87040FFF7B3BF28462146DFF810
:1010A00010C000DF70BD002070BD00BF4004FF1FF6
:1010B0000110000038B5EFF305847CB110F0030493
:1010C00010D178B10378022B0CD142884FF6FF7310
:1010D0009A4209D0FFF737FB204638BDDFF80CC035
:1010E00000DF38BD802038BD812038BD31100000C0
:1010F00010B5EFF305841CB9DFF808C000DF10BDA0
:10110000822010BD5B10000010B5044618B10168C4
:1011100009B1406820B9802000F09FF9002010BD7F
:101120000378002BF7D10431890089B200F0C4F9AB
:10113000606810BD38B5104D2C78D4B921460F48E1
:10114000FFF7E2FF0E4B214618600E48FFF7A8FE9E
:101150000D4B214618602046FFF7F6FC0B4A13683A
:101160005B6A203383F309881460FFF7CDFD012308
:101170002B70002038BD00BF4004FF1FDC01FF1FA3
:101180003C0FFF1FE401FF1F380FFF1F0004FF1F6C
:101190002DE9F04F0C4685B08046E8B10378012B6D
:1011A0001FD10846FFF7FEFD02A982B2404600F0BB
:1011B00091F9012806D10020002C0246034618BFF1
:1011C000402003E000200246034610200299044616
:1011D0000D4616461F4608E080240546064607468B
:1011E00003E0002580242E462F462046294632461D
:1011F0003B4605B0BDE8F08F7FB50446164608466D
:10120000EFF30581A9B101AD00B10AB180230AE075
:101210000378012BFAD102A900F0B9F9042801D012
:10122000019601E01023019395E8070084E8070088
:1012300005E01146DFF80CC000DF84E80700204617
:1012400004B070BD911100007FB50A4B03A8196866
:101250004FF0FF32FFF7D0FF039B102BF5D101A811
:101260000499FFF7C1FE019B002BEED0029898472E
:10127000EBE700BF3C0FFF1F054B1B7823B9054B65
:101280004FF080521A607047034B01221A7070476A
:101290004904FF1F04ED00E04804FF1F38B5184B58
:1012A000184D186801234370FFF7C4FA6C78AA78C8
:1012B000144BEAB103EBC403586802781AB91989D0
:1012C000FFF764FA07E0012A03D1996800F086F974
:1012D00001E0FFF741FAEB7801349C4208BF00249B
:1012E000EFF3108372B6AB78013BAB7062B6DEE70A
:1012F0005C700548FFF78CFABDE83840FFF7D8BBB3
:101300000004FF1F580CFF1FE803FF1F084B1A685B
:10131000084B1A6000225A60072243F8042C064A40
:10132000136843F07F4313604FF0FF30704700BFF6
:101330001C9B000014E000E020ED00E0704700007E
:1013400008B50B4B186801234370FFF773FA00F0E0
:1013500059F8084A136801331360FFF79BFAFFF747
:1013600017FE0548FFF754FABDE80840FFF7A0BB99
:101370000004FF1F4C04FF1FE803FF1F084B1B68FE
:10138000DA78012A0AD09A6A5B6A9A4203D812680C
:10139000044B9A4202D0012000F05DB8704700BFB4
:1013A0000004FF1FA52E5AE2EFF3108372B6026805
:1013B00003F001030AB11168016003B962B6104677
:1013C000704781420DD3436899420AD2EFF31083EC
:1013D00072B602680A60016013F0010003D162B6C0
:1013E000704701207047002070470000034B002227
:1013F0001A60034A1268DA80704700BF5004FF1F6A
:10140000209B000008B5104B10485A68104B196813
:1014100091421FBF1A60DA8802F1FF3102681CBFD7
:1014200052189A809A8803889A420BD1084B064832
:1014300000221A60FFF7ECF9BDE8084001460248B7
:10144000FFF7CEB908BD00BFE803FF1F4C04FF1F24
:101450005004FF1FFEE701F035B808B101F032B8C3
:10146000704700000449054AC1F1005303F53F33BA
:101470009360D160704700BF1813FF1F9C01FF1FCE
:101480000020002104460D46094802F023FD03F028
:101490001DF820462946FFF7B9FCFFF7E3FF054892
:1014A0000021FFF749FDFFF7C5FC02F0E3F900005A
:1014B000954200009C01FF1F012310390370890829
:1014C0000023437083704360038143818381C18122
:1014D0007047000070B5858904461646002D34D04B
:1014E00043891A1D013350F822200A60C2899BB239
:1014F0009A42438104BF002343814368EBB14378A0
:10150000022B1AD1FFF784F900210546FFF786FA6E
:101510002389E9691A1D013344F82210E2899BB23C
:101520009A42238108BF0023284608BF2381FFF782
:101530001BFA2846FFF7C4FA05E0EFF3108372B6F2
:10154000013DA58162B6002070BD82B14268094BA1
:101550001AB11968FFF744F905E01B6843605A6047
:1015600098600123437030460821FFF7CBFA012031
:1015700070BD00BF0004FF1FC2898089101A704728
:1015800008B5FFF705FABDE80840FFF775BE838987
:1015900010B50446EBB14389043350F823300B6097
:1015A0004378022B04D10021FFF7F2F9FFF764FE24
:1015B000EFF3108372B6A389013BA38162B66389FE
:1015C000E28901339BB29A42638104D10023638193
:1015D00001E0184610BD042010BD0000426870B53F
:1015E00004460E46002A4AD04578022D1CD0032D11
:1015F0000AD0012D5DD1FFF70BF9044610213246C8
:10160000FFF715FA657034E00846FFF7CDFE054692
:1016100000284ED02046FFF7FBF829460446FFF786
:10162000FDF90123637024E0FFF7F2F8002105467D
:10163000FFF7F4F92389E9691A1D44F82210EFF342
:10164000108272B6A2890132A28162B6E2890133A8
:101650009BB29A42238104BF0023238101232846A1
:101660006B70FFF781F913482946BDE87040FFF71A
:10167000B7B82046FFF778F90E482146F5E781898B
:10168000C089814210D223891D1D44F82560EFF3E3
:10169000108572B60131A18162B601339BB28342DB
:1016A00014BF2381228170BD0320BDE87040FFF785
:1016B000D2BE70BDE803FF1F7047000010B5054B98
:1016C0000360044601F086FE204601F0C9FE204674
:1016D00010BD00BF30A0000010B5044602F0D5FBDD
:1016E000204610BD10B5064B036003F118024C33C1
:1016F000044642648364443001F0A8FF204610BDD4
:1017000070A00000A0F14400FFF7ECBFA0F148007A
:10171000FFF7E8BFF0B50B4B0B4D1E6807460FCD2A
:1017200087B001AC0FC42B68236006AA331302EB09
:101730008303F1B253F8140C3A4607B0BDE8F04009
:1017400001F0C6B80810FF1F249B0000D0B5104C54
:10175000206807F027FE00220E4B07F0B3FF0E4B68
:10176000064618680F4607F02FFE02460B46304625
:10177000394608F0EFF800B10120FFF7CBFF2368EE
:10178000034A0133642B08BF00231360D0BD00BFA0
:101790001010FF1F00005940940FFF1F10B50446A2
:1017A000FFF78CFF204602F070FB204610BD0000C2
:1017B00010B5044601F032FE2046044B40F8203BB1
:1017C000002101F01FFD204610BD00BF30A0000029
:1017D0000D4B0E4A1A600E4B0E4A1A600E4A0F4B02
:1017E0000F49136000220A600E490A600E4A136016
:1017F0000E4A13600E4B4FF07E521A600D4B4FF0A5
:101800007C521A60704700BFEC0FFF1F0000F041D0
:10181000C010FF1F00009642900FFF1F0000A04065
:10182000E80FFF1FB810FF1F880FFF1F0C11FF1FCD
:10183000C410FF1FBC10FF1F00B58BB0FFF7C8FF1F
:101840002349244801F0E4FC42F2107200232248AC
:1018500001F0CCFD2149224801F0DAFCC822002326
:10186000204801F0C3FD2048204901F0D1FC204868
:10187000204A002301F0BAFD1F4801F049FF1E482D
:1018800001F062FF1D4B0446186807F09DFDCDE98D
:1018900000011B4B186807F097FDCDE90201194BB9
:1018A000186807F091FDCDE90401174B186807F09F
:1018B0008BFDCDE90601154B186807F085FD224622
:1018C000CDE908011249134801F00CFFD7E700BF2A
:1018D00049190000B80FFF1F980FFF1F4D17000098
:1018E000680FFF1F480FFF1FE810FF1FD11E0000E9
:1018F000C810FF1FA08601002010FF1F4410FF1F0B
:101900004010FF1FF00FFF1F0C10FF1F940FFF1F51
:10191000B49B00009010FF1F07EE100AD1ED006A83
:10192000F4EEC76AF1EE10FA48BF81ED007A07EED7
:10193000902A91ED007AB4EEE77AF1EE10FAC8BF82
:10194000C1ED007A704700002DE9F84FBE4DBF4849
:10195000BF4CDFF86083BF4F2DED028B29464FF05F
:101960007E52FFF7D9FFBC4801F036FAD5ED007A78
:10197000206007EE100A77EEC77AB848C7ED007A04
:10198000D8F8006001F028FA08EE100AB44801F017
:1019900023FA07EE900AB34838EE278A01F01CFAC2
:1019A00007EE900A38EE278AF0EE087A88EE278A4A
:1019B000AD4BD8F80020206803EB86060132052ADB
:1019C000AA46AA4D08BF0022C8F8002086ED008A6A
:1019D00093ED017AD3ED007A77EE877A93ED027A70
:1019E00077EE877A93ED037A77EE877A93ED047A30
:1019F00077EE877AB1EE047AC7EE877AC5ED007A82
:101A000007F0E2FC86A3D3E9002307F0C1FF00281A
:101A100000F0568197ED008A954C964F964EB5EEA4
:101A2000C08AF1EE10FAB0EEC87A4DDB934BDFF8C6
:101A300088B2D3ED007A67EE887A17EE100AC7ED08
:101A4000007A07F0C1FC4FF033328D4B07F082FF74
:101A5000E8B1206807F0B8FC73A3D3E9002307F0CE
:101A600007FDDBED007A68EE277A804617EE900AD4
:101A7000894607F0A9FC6EA3D3E9002307F0F8FC20
:101A800002460B464046494607F040FB0CE0DBEDC2
:101A9000007A68EE277A17EE900A07F095FC64A3A7
:101AA000D3E9002307F0E4FC07F0C4FF754B206086
:101AB000D3ED007A744B38EE678AD3ED007A27EEC7
:101AC000888A86ED008A51E0704BDFF8F0B1D3EDE3
:101AD000007A67EE887A17EE100AC7ED007A07F0F1
:101AE00073FC4FA3D3E9002307F034FFE8B120686B
:101AF00007F06AFC4CA3D3E9002307F0B9FCDBED47
:101B0000007A68EE277A804617EE900A894607F039
:101B10005BFC47A3D3E9002307F0AAFC02460B466F
:101B20004046494607F0F2FA0CE0DBED007A68EE39
:101B3000277A17EE900A07F047FC3DA3D3E900236C
:101B400007F096FC07F076FF514B2060D3ED007A4A
:101B500068EE277A17EE900A07F036FC34A3D3E933
:101B6000002307F085FC07F065FF306049484149D4
:101B7000494AFFF7D1FE47483D49474AFFF7CCFEA7
:101B8000454A44483C49FFF7C7FE95ED007A434A71
:101B90000023F2EC017AB4EEE77AF1EE10FA0EDDF2
:101BA0003F4A40499B001A440B44D3ED007AD2EDE2
:101BB000006A3D4BE6EE877AC3ED007A02E001331E
:101BC000072BE6D1DAF8000007F0FEFB1AA3D3E9F1
:101BD000002307F04DFC1AA3D3E9002307F096FA7F
:101BE00007F028FFD4ED007A97ED007A2F4B3049AB
:101BF000186037EE277AD6ED007A2B4B264A06EE90
:101C0000900A77EE277A93ED007A77EEA67A002095
:101C100077EE877AC1ED007AFFF77EFE5CE000BFC9
:101C20009A9999999999A93F022B8716D9CEEF3F96
:101C30007B14AE47E17A843FA779C7293A92EB3FFC
:101C4000CBA145B6F3FDA43FF00FFF1FCDCCCC3D9B
:101C50004010FF1FB410FF1FFC0FFF1F1C10FF1FC1
:101C60001011FF1FDC0FFF1F2C10FF1F4410FF1F60
:101C70001810FF1FE40FFF1FD80FFF1FEC0FFF1FEF
:101C80003333B33F0811FF1F900FFF1FE80FFF1FF3
:101C9000880FFF1F0000C8C10000C841689B0000FA
:101CA000849B00004C9B00000410FF1FB010FF1F1E
:101CB0000C10FF1FE00FFF1FC010FF1FB810FF1F09
:101CC0006D4C206807F080FB63A3D3E9002307F085
:101CD0001DFA07F0AFFE2060674B684F1868684C2C
:101CE000684E694D07F070FB5DA3D3E9002307F050
:101CF000BFFB5DA3D3E9002307F008FA07F09AFEC3
:101D00003860624801F068F8D7ED007A604B614AAC
:101D1000186008EE100A604B2068D3ED008A37EE99
:101D2000C88AC2ED008A83ED008A5C4BD3ED007A4D
:101D300067EE887AC6ED007A07F046FB4CA3D3E93C
:101D4000002307F095FB564BD3ED007A68EE277A17
:101D5000804617EE900A894607F036FB3EA3D3E98A
:101D6000002307F085FB02460B464046494607F034
:101D7000CDF907F05FFE4B4B2060D3ED007A4A4867
:101D800038EE688A314627EE888A4FF07E5285ED1C
:101D9000008AFFF7C1FD444821464FF07E52FFF70D
:101DA000BBFD414829464FF07E52FFF7B5FDD7ED08
:101DB000007A9FED3E7A3E48F4EEC77AF1EE10FAD3
:101DC0001BDC9FED3C7AF4EEC77AF1EE10FA16DCDC
:101DD0009FED397AF4EEC77AF1EE10FA11DC9FED3F
:101DE000377AF4EEC77AF1EE10FA0CDCF5EEC07A31
:101DF000F1EE10FA15DD042306E0002304E00123D0
:101E000002E0022300E003232D4A2E499B001A44DE
:101E10000B44D2ED006A93ED007AA6EEA77A80ED2E
:101E2000007A94ED007AD6ED007A274977EE877A2A
:101E3000BDEC028B95ED007A77EE877A90ED007A13
:101E400077EE877A00204FF07E52BDE8F84FC1ED63
:101E5000007AFFF761BD00BF7B14AE47E17A843F93
:101E600007F0164850FC883F9A779CA223B9C43FDC
:101E7000022B8716D9CEEF3F0C10FF1F0010FF1F5B
:101E8000F80FFF1F400FFF1F8C0FFF1FAC10FF1F2D
:101E9000A810FF1F1411FF1F1410FF1F0C11FF1FAC
:101EA000C410FF1FBC10FF1F000080BF1361A33EC2
:101EB000F40FFF1FD95F963EB7627F3EAA82513E64
:101EC000389B0000A09B0000940FFF1FAFF3008021
:101ED000334B70B5186807F077FA2DA3D3E90023C8
:101EE00007F056FD002851D02E4B2F4D1C68C72CF3
:101EF0001E4603DC142394FBF3F307E0B4F5C87F1C
:101F00000FDAC4F5C873142293FBF2F307EE903A8C
:101F1000F8EEE77AB2EE047AC7EE877AC5ED007A7A
:101F20002AE0B4F5167F08DA286807F04DFA1AA3FC
:101F3000D3E9002307F0EAF80AE0B4F5487F0BDAAA
:101F4000286807F041FA14A3D3E9002307F0DCF86E
:101F500007F070FD28600FE0B4F5617F01DA134BE4
:101F600009E0B4F57A7F01DA114B04E040F24B430B
:101F70009C42F4DD0F4B2B600134346000200A4991
:101F80004FF07E52BDE87040FFF7C6BC70BD00BF89
:101F90009A9999999999A93F7B14AE47E17A743F30
:101FA0004010FF1F4810FF1FF00FFF1F9A99993E26
:101FB000CDCC4C3FCDCCCC3D10B50446FFF792FBC9
:101FC000204601F062FF204610BDA0F14400F3E777
:101FD000A0F14800F0E7000070B52748274D284ED3
:101FE00042F20B0100F058FE264842F20A0100F0CE
:101FF00053FE254841F20A0100F04EFE234841F20B
:10200000030100F049FE224841F2020100F044FEC3
:10201000204800240221046001F022FD23461E4CCA
:10202000284641F2110141F2100201F039FA22462C
:102030001A49284601F024FF194D3046FFF7B8FB36
:102040003046184E2946224601F01AFF3046FFF767
:10205000AFFB3046144E2946224601F011FF3046B0
:10206000FFF7A6FB30462946224601F009FF0F483C
:10207000BDE8704001F07EBBFC0FFF1F4C10FF1F3E
:10208000980FFF1FAC10FF1FDC0FFF1F1011FF1F69
:102090001C10FF1F0810FF1F9801FF1FE51600000E
:1020A000BD160000480FFF1FC810FF1F2010FF1FA4
:1020B00070B5114E114D124C3046002100F026F83B
:1020C0003046104E2246294601F0DAFE3046002105
:1020D00000F01CF830460C4E2246294601F0D0FE96
:1020E0003046002100F012F8304629462246BDE86D
:1020F000704001F0C5BE00BF1811FF1F3321000062
:102100009801FF1F3811FF1F2811FF1F70B500F144
:10211000080504460E4608222846002102F074FAFB
:102120002046314640F8045FFEF7A6FF20602046B7
:1021300070BD10B504460068FEF7DAFF204610BDFA
:10214000036870B500211D6901220446A847431C9D
:1021500005460ED0216802220E6920460021B047B4
:1021600022680646136920462946002298473046D1
:1021700070BD0646FBE700BF0D4B0E4A30B402604F
:1021800003F58074002501E0A3420FD01A4652F8EF
:10219000041B8142134608BF42F8045C53F8042B29
:1021A0008242F1D1A34243F8045CEFD130BC7047C6
:1021B0004811FF1FF09B000038B50F4A0F4B02601B
:1021C0000446002503F5807001E083420FD01A46D3
:1021D00052F8041B8C42134608BF42F8045C53F8C3
:1021E000042B9442F1D1834243F8045CEFD12046A2
:1021F00001F04BFE204638BDF09B00004811FF1F48
:10220000054B186800B17047044841F2110141F2D2
:10221000100200F0F1BD00BF4812FF1F0C13FF1F9A
:10222000F0B50F4685B03049064603F060FD044620
:10223000002836D030462D4903F059FD60B33046B2
:102240002B4903F054FD00282FD02A48002406E033
:102250005D680134181D35B10134402C29D0456822
:10226000031D002DF4D131783A2936D002A8314629
:1022700000F0DEFF02A801F02DF8D0B102A801F0B5
:1022800015F8C8B102A801F01BF803468BB11A4932
:10229000E01C41F8243002E0FFF7B2FF012005B056
:1022A000F0BDFFF7ADFF2046F9E7FFF7A9FF0220D9
:1022B000F5E74FF0FF30F2E702A800F0EFFF054628
:1022C0000028F6D0026802A8966800F0DBFF3A46C4
:1022D00001462846B0470346D8E73046074901AAD9
:1022E00003F096FC019BD1E7D09B0000E09B00002F
:1022F000D89B00004411FF1F4811FF1F189C0000CD
:10230000022808B50BDDC21E074B53F8220000213E
:1023100043F8221028B102685368984708BD00208E
:1023200008BD4FF0FF3008BD4811FF1F0228F8B567
:102330000D46174628DC1D490A68002A2DD00FB328
:102340002C46EE1914F8011B1948ED43AB1903F0A4
:10235000010500F095FEB44214D035B114F8011B0C
:10236000134800F08DFEB4420CD02546104815F8F5
:10237000011B00F085FE61780D486C1C00F080FEAA
:10238000B442F2D13846F8BD03380A4B53F8200066
:1023900040B103681B689847F8BDFFF731FF002F75
:1023A000CED1EFE74FF0FF30F8BD00BF4812FF1F5E
:1023B0000C13FF1F4811FF1F022810B50C4609DC43
:1023C0000D4A106888B10D4800F00AFE0121207006
:1023D000084610BD03380A4B53F8200040B103688B
:1023E0009B6898470146084610BDFFF709FFEAE7DA
:1023F0004FF0FF31ECE700BF4812FF1F0C13FF1F27
:102400004811FF1F022808B508DD0338064B53F8B2
:10241000200028B10168CA68904708BD012008BDA6
:102420004FF0FF3008BD00BF4811FF1F022808B55C
:1024300008DD0338064B53F8200028B103681B69F8
:10244000984708BD002008BD4FF0FF3008BD00BF11
:102450004811FF1F022808B504D84FF40050486007
:10246000002008BD01F04AFD092303604FF0FF3052
:1024700008BD00BF08B5012001F0FCF9704700BF9E
:10248000704700BF08B5FFF7FBFFFFF7F7FFBDE898
:102490000840FFF7D1B900BF084A13681818EFF3D6
:1024A0000881884202D2106018467047044B0C2203
:1024B0001A604FF0FF331846704700BF2402FF1F19
:1024C0001013FF1F70B586B072B641F21601684650
:1024D00001F0C6FA28E01D4D0FCD01AC0FC42B68EA
:1024E000321306A901EB82002360F1B2012250F8F9
:1024F000140C00F0EDF9962001F0DAF9009E731C3F
:102500001CD0124D0FCD01AC0FC42B68321306A99D
:1025100001EB8200236050F8140CF1B2002200F0AD
:10252000D7F9962001F0C4F9009E721CD3D1084857
:102530000849202201F086F9009ECCE704480549AD
:10254000202201F07FF9009EDBE700BF289C0000FD
:102550003C9C0000589C00004FF46D42CEF20002FB
:10256000F0B4936894681A46C4B94FF6FC7403F546
:10257000CC77C1F6FE741A46251D52F8046B6660CE
:102580005C68131D6C602C1DBB42F4D14FF46D438D
:10259000CEF200030022C1F6FF729A60103042F8BA
:1025A0002010F0BC704700BF00B583B001A8042123
:1025B00001F00CFA03B000BDFEE7FEE7FEE7FEE720
:1025C000FEE7FEE7FEE7FEE7FEE7FEE74FF46D42BB
:1025D000CEF2000210B4D2F888004FF40053C4F2D7
:1025E000050340F470044FF47041C2F88840C4F20F
:1025F00007014CF220524DF628104FF4E974DA81AD
:10260000D8811C800B78D90740F189804FF4504065
:10261000C4F20700837803F00802D1B2002940F029
:102620009D804FF4604148F24002C4F20701C4F2B9
:1026300004024FF4E044C4F204042A204FF08A73E9
:102640000870536021684FF4004221F44020C4F226
:10265000040240F400232360546848F2200024F46C
:102660004031C4F2040041F48033536084694FF474
:102670001042C4F2040244F400718161906C4FF482
:102680008043C4F2060320F0807424F4E06100204B
:10269000916418725C784FF4A04204F09F0141F0FD
:1026A0002004C4F206025C70802414701873BA20EF
:1026B000194618708B7903F010024FF48040D3B2A2
:1026C000C4F20600002BF5D1C178132301F01F02DC
:1026D0001821C27003714171427942F04003437185
:1026E000817901F040034FF48042D9B2C4F206026E
:1026F0000029F5D0107800F03F031370917901F0B4
:102700000C000C28FAD148F24003C4F204039A6882
:1027100022F00F0141F00900986010BC704748F2A8
:102720002002C4F204024FF45040D169C4F2030005
:1027300041F00054D4610369DA053FF572AF0269D4
:1027400022F47C5141F440740461036943F48072C3
:102750000261016921F40074046162E7847844F045
:10276000080383705DE700BF10B50C46172849D8F1
:10277000DFE800F04D4D4D4D4D4D10514858105F64
:10278000161B242D48363F0C0C0C0C0C002121602C
:10279000084610BD4FF4004121600021084610BDDD
:1027A0004FF47A730B600021F2E74FF48040C4F2DB
:1027B000060000F0A5F800212060E9E74FF4804012
:1027C000C4F2060000F0D0F800212060E0E74FF4EA
:1027D0008040C4F2060000F00BF900212060D7E72A
:1027E0004FF48040C4F2060000F03AF90021206066
:1027F000CEE74FF48040C4F2060000F01DF900213E
:102800002060C5E74DF6031008600121C0E7BDE870
:10281000104000F013B84FF28003C0F2FA230B60AF
:102820000021B5E74FF4D842C0F2DC220A60002153
:10283000AEE7012008600021AAE700BF30B500EB39
:102840004000134BC25C83B00D46C4187AB1607867
:10285000FFF78AFFD0B94FF4E040C4F20400A1783A
:1028600001AA00F03DF950B1042003B030BD4FF48F
:102870008040C4F2060000F0F3F82860EBE7019B0B
:1028800029685A1CB1FBF2F12960EEE70120ECE760
:10289000E89E00001F2908B50ED8012A436906D01A
:1028A000012202FA01F123EA0103436108BD02FAA1
:1028B00001F21A43426108BD0248034A034B2C212E
:1028C00001F0ECFAE09C0000B49C0000609D000068
:1028D0001F2908B507D8012303FA01F10AB981605D
:1028E00008BD416008BD0348034A044B402101F084
:1028F000D5FA00BFE09C0000C89C0000609D00006D
:1029000010B400F1047203465001017A19B14FF47A
:10291000004010BC70471C7B14F003001CD0012841
:102920001FD04FF4D842C0F2DC22022818BF002288
:102930001C785978C4F3C200012404FA00F0C0B234
:1029400011F0300FB2FBF0F0E3D01B7B03F0030279
:10295000A242DED04009DCE74FF28002C0F2FA2248
:10296000E6E74FF40042E3E710B50446FFF7C8FF7F
:1029700004F10473D91C4A01127FE378C3F34113B5
:10298000032B0BD8DFE803F015100B02002A2AD026
:10299000012A03D140F6713101FB00F010BDDAB914
:1029A000C0EB0013D80110BD7AB900EB8000000223
:1029B00010BD1AB900EB8003D80110BD012AEDD17A
:1029C0004FF4377202FB00F010BD012AE6D14FF43C
:1029D000B76101FB00F010BD012ADFD140F695027E
:1029E00002FB00F010BD00EB8000400210BD00BFF4
:1029F000037B13F0030116D0012919D04FF4D842FC
:102A0000C0F2DC2202290CBF134600230179407971
:102A100001F01F02511C00F01F00B3FBF1F318304E
:102A200000FB03F070474FF28003C0F2FA23EDE79A
:102A30004FF40043EAE700BF00F10473591C4A0158
:102A400013784BB1007A4FF41061C0F34202C0F228
:102A50003D0121FA02F070474FF40040704700BF7B
:102A600002789209034607D100F104714B1D5A0107
:102A7000117E59B9FFF778BF00788109012907D085
:102A80001A789009022813D000207047FFF7B0BFD2
:102A900003F10470411C4A011078C0B1197A4FF457
:102AA0001063C1F34202C0F23D0323FA02F0704703
:102AB0001B7B13F003010DD0012908D04FF4D8423D
:102AC000C0F2DC2202290CBF1046002070474FF4F0
:102AD000004070474FF28000C0F2FA20704700BFFC
:102AE0000E2908B544D8002313600E2909D8DFE861
:102AF00001F00A11192129330808080808080808F4
:102B00003B00042008BD00F58253002059680B0FDC
:102B1000136008BD00F5825100204B68C3F30361C8
:102B2000116008BD00F5825300205968C1F30353BA
:102B3000136008BD00F5825100204B68C3F30341C8
:102B4000116008BD41F24803C0F21023C0184101D2
:102B500000200B68136008BD00F5825100208B68CF
:102B6000C3F34201116008BD01201060002008BDC0
:102B70000348044A044B40F2B71101F08FF900BF3B
:102B80006C9D0000D09E00000C9E000004290CD813
:102B9000DFE801F00C151E27030041F23803C0F2F4
:102BA0001023C018410101224A63704741F23803E3
:102BB000C0F21023C018410101224A62704741F25D
:102BC0003803C0F21023C018410101228A62704705
:102BD00041F23803C0F21023C01841010122CA6239
:102BE000704741F23803C0F21023C018410101229E
:102BF0000A63704741B941F23C01C0F21021431809
:102C000058010122C2667047012900D0704741F285
:102C10003003C0F21023C0184201D166704700BFD4
:102C200041F23C03C0F21023C01841010122CA65E1
:102C3000704700BF05290CD8DFE801F00C151821FA
:102C40002A0341F22803C0F21023C21850010123C5
:102C5000C362704741F23401C0F2102141184801AB
:102C600001228262704741F23403ECE741F2340200
:102C7000C0F210228018430101211963704741F20C
:102C80003402C0F2102280184301012159637047B9
:102C900041F22801E0E700BFF0B50D46044685B0DB
:102CA0003849284600F0B4FD4FF6FF7280B29042DA
:102CB000208059D003463449344C03C91F0A04AE5E
:102CC00006E9030020683946FFF794FF032001A9B5
:102CD000FFF74AFD48F68050019AC0F25B0082423D
:102CE00049D9B0EB520F49D2B0EB920F39D203233E
:102CF000B0EBD20F36D2602604A901EB870757F854
:102D0000084C204600F0B0FEA0681E4920F00302E7
:102D1000A260A36823F060073E43A660206A20F00B
:102D20000302226204F10473D4F808E003F12406DC
:102D300003F1200770017F01002601224EF00C0CE8
:102D4000C4F808C0C660BE618260606A0C335B0173
:102D500020F00300606228461A6100F027FD05B0EC
:102D6000F0BD02235E01C7E709480A49212200F0AD
:102D700069FD23889FE700235E01BDE701235E0113
:102D8000BAE700BFC4A20000FC9E0000B09C000097
:102D9000049F00001C9F000010B40E4A038892E8B4
:102DA000030083B002AC1A0A04E9030004EB8200BA
:102DB00003F00F0350F8081C01F1047250010B607E
:102DC0001C300368012BFCD1096988B203B010BC28
:102DD000704700BFFC9E000008B5FFF7DDFF07EE5F
:102DE000900A9FED040AB8EE677A67EE000A10EECB
:102DF000900A08BD800080372DE9F047894686B0EB
:102E000004464F494846904600F002FD4D490546AC
:102E1000404600F0FDFC0146284600F0E7FC431C5C
:102E2000206000F0858000F0C5FE474B474E2168CA
:102E300082461868FFF7FEFE0FCE6D460FC596E876
:102E40000300276885E8030006AA02EB870706AEA1
:102E500057F8180C00F010FE206806A901EB80035B
:102E60004FF41652514653F8180C00F01BFE25681B
:102E7000334906EB8500002250F8183C9D789D7080
:102E8000206806EB8005012355F8180C00F1047545
:102E90006D0148462A75256806EB850555F8185CCE
:102EA00005F1047502356D012A74226806EB820271
:102EB00052F8182C02F10472033252011373226883
:102EC00006EB820252F8182C02F10472033252010E
:102ED000137200F06BFC40461A4900F067FCB9F130
:102EE000FF3F03D04846022100F03AFFB8F1FF3F10
:102EF00003D04046022100F033FF216871B106A8DB
:102F000000EB810252F8183C03F1047148019C3037
:102F10000278002AFCD006B0BDE8F0870C4B0D48C3
:102F20002146042201251D6001F063FB2168E6E7CC
:102F300009480A49342200F085FC206873E700BF85
:102F400034A20000A4A10000B09C0000849F0000F7
:102F50004812FF1F0C13FF1F9C9F0000B49F00002E
:102F600010B441F2602341F24C24C1F6FF740068B2
:102F7000C1F6FF7344F82020196010BC704700BFF1
:102F800070B5164D06460FCD86B06C460FC495E859
:102F90000300336884E8030006AA02EB83000321E0
:102FA00050F8180C00F0A8FD40B1316806AB03EBF7
:102FB0008102032152F8180C00F0C4FD306806A904
:102FC00001EB800353F8182C02F10470011D4B0132
:102FD0001A7D101C18BF012006B070BD849F000030
:102FE00070B5044688B02046FFF7CAFF0028FAD023
:102FF0000A4D26680FCD02AC0FC495E8030008AB5C
:1030000084E8030003EB86060DF1070156F8180C5F
:1030100000F06EFD9DF8070008B070BD849F0000B1
:1030200070B5164D06460FCD86B06C460FC495E8B8
:103030000300336884E8030006AA02EB830003213F
:1030400050F8180C00F058FD40B1316806AB03EBA6
:103050008102032152F8180C00F074FD306806A9B3
:1030600001EB800353F8182C02F10470011D4B0191
:103070001A7F101C18BF012006B070BD849F00008D
:10308000F0B5044687B00E462046FFF7C9FF00287A
:10309000FAD00A4D27680FCD6C460FC495E803009F
:1030A00006AB84E8030003EB8707F1B257F8180C6E
:1030B00007B0BDE8F04000F017BD00BF849F0000DE
:1030C000F0B52B4B1C6883B00CB103B0F0BD294A9E
:1030D000012510681D602146FFF7A2FD0420C4F2FF
:1030E0006E2001A904600320FFF73EFB019C2249EA
:1030F0004DF68363C4F21B33A3FB040E4FF4E24787
:103100004FEA9E4CC4F2030747F2101642F208340D
:103110004FF404504FF40C52C4F26E24C4F26E20EB
:10312000C4F26E220CF1FF3EC4F20306C7F800E0C1
:103130004FF0FF373760256005601560019C47F24E
:103140002010A3FB044342F20872C4F20300C4F24D
:103150006E229B0CDB19036033201560FFF7FCF92E
:103160004FF46141CEF200014FF400204860ACE71B
:103170006412FF1FB09C0000D138000008B5064B58
:10318000186808B9FFF79CFF47F21411C4F2030155
:103190000A68D04308BD00BF6412FF1F42F20473E7
:1031A000C4F26E2300221A60704700BF47F23C133E
:1031B000C4F2030301221A60704700BF70B50446D1
:1031C000FFF7DCFF201A002818DD4FF41C514FF4E4
:1031D000145347F2301542F20474C4F26E21C4F263
:1031E0006E23C4F20305C4F26E24012200260E6091
:1031F0001E60286022600A601A6070BDBDE87040E1
:1032000000F066BB0022426082610160704700BF2F
:10321000002301604360704708B5036801460BB1A5
:10322000984708BD406810B18A690831904708BDC9
:1032300038B50022026042600B782F2B044601D083
:10324000204638BD48780028FAD0481C20604B78CA
:103250002F2B12D0A3B18D1C114600E042B1256086
:103260002A782B46013101352F2AF7D1013323600B
:1032700000F07CF86060204638BD03461146F5E753
:103280001946F5E700687047406808B520B100F0BE
:103290008DF8431E5842584108BD00BF10B5044682
:1032A000FFF7F2FF00B1606810BD00BF406808B5CD
:1032B00028B100F07BF8D0F1010038BF002008BD34
:1032C00010B50446FFF7F2FF10B1606800B1043892
:1032D00010BD00BF4068003018BF0120704700BF1C
:1032E000094A8368026053B108490A68824201D1E1
:1032F00006E01A4653689842FBD141685160704716
:1033000043680B60704700BF20A000006812FF1FD9
:103310000C4A836810B50446026053B10A4802683B
:10332000944201D10AE00A4651688C42FBD163689D
:103330005360204600F0A9FD204610BD6168016081
:10334000F7E700BF20A000006812FF1F054B0273C3
:10335000002203604260816019B103490B68086074
:103360004360704720A000006812FF1F0E4B70B52D
:103370001C6806460D4614B912E0646884B1A3685F
:1033800031462A461846002BF7D002F0C2FC00282E
:10339000F3D1A06802F0B5FCA842EED1204670BD82
:1033A0000024204670BD00BF6812FF1F007B7047DD
:1033B00070B5D0E90223D0E90645121943EB0503A5
:1033C000064600F041F806F12000BDE87040FFF726
:1033D00023BF00BF10B5044600F03EF804F1200002
:1033E0000021BDE81040FFF713BF00BF70B51446C1
:1033F0001D46064600F030F8C6E90645FFF7BEFE5A
:10340000221845F100033046BDE8704000F01CB8BA
:1034100008B503689968884708BD00BF094B10B517
:1034200000210360002200230446C0E90223016159
:10343000416143F21140C0F2000000F03FFA204623
:1034400010BD00BF48A0000000B583B00090083058
:1034500000F064FA03B000BD083000F091BA00BF7C
:10346000034B10B504460360FFF7F6FF204610BD7E
:1034700048A0000010B50446FFF7F2FF204600F018
:1034800004FD204610BD00BF00F056B8A0F1440076
:10349000FFF7FABF00F04CB8A0F14400FFF7FABF05
:1034A00038B504461D4600F01BF8294604F14400D7
:1034B00000F0F2F84AF26803C0F2000303F10801D9
:1034C00003F12002543321606264A364204638BDB6
:1034D000C1EBC10100EB81000830FFF79DBE00BFCA
:1034E000F8B5124B0025044603600E464560294698
:1034F00000F108001746FFF785FE294604F1240075
:10350000FFF780FE251D4FF41653284631463A46F4
:103510002364FFF771FC43F2D1412846C0F2000159
:103520002246FFF71DFD2046F8BD00BF60A0000049
:103530000430FFF755BD00BF10B504300C46FFF74F
:103540009FFD204610BD00BF002070472DE9F041CF
:103550008E18B1420F46054630D003680C46BA1BA0
:10356000D24314F8011B5B6A02F00108984701304E
:103570001ED0A6421FD0B8F1000F09D0286814F859
:10358000011B436A28469847013011D0A64212D049
:103590002A6814F8011B536A2846984701302846C8
:1035A00006D02A6814F8011B536A98470130EDD100
:1035B000E01BBDE8F081F01BBDE8F0810020BDE814
:1035C000F08100BF2DE9F0418E18B1420F4605464B
:1035D00031D003688A1BD1439C6A01F00108A047DF
:1035E000431C3C4624D03C4604F8010BA6421CD0A8
:1035F000B8F1000F06D02B6828469A6A9047431C02
:103600000FD115E0296828468B6A98470246511C5D
:1036100028460DD004F8012B29688B6A9847421C74
:1036200006D004F8010BA642ECD1F01BBDE8F081F6
:10363000E01BBDE8F0810020BDE8F081002070476C
:103640000020704700207047002070474AF2C803EE
:10365000C0F2000303F108023C3310B5044680E8D1
:103660000C00406900F0A2FC204600F0CDFB204693
:1036700010BD00BFA0F10400FFF7E8BF10B504467D
:10368000FFF7E4FF204600F000FC204610BD00BF1D
:10369000A0F10400FFF7F2BF30B585B0044600F09A
:1036A000D9FB4AF2C803C0F2000303F10800002569
:1036B0003C3349F6184184E809002246C0F2000173
:1036C000656101A802F080FA4AF21011C0F200010F
:1036D00001A800F033FE2946606102F09DF9204602
:1036E00005B030BD0EB430B582B005AB044653F81A
:1036F000045B4069019300F00FFD6069019A29465F
:1037000001F062F902B0BDE8304003B0704700BF7D
:10371000036810B5044623B9FFF730FD606001204F
:10372000206010BD036810B504460BB9184610BDE3
:10373000FFF724FD6168401A10BD00BF10B5846812
:10374000FFF7F0FF201810BD08B5FFF7F7FF44F6AC
:10375000D353C1F2620383FB0021C017C0EBA11059
:1037600008BD00BF10B50446FFF708FD00236060E8
:10377000A36010BD002310B504460360436083605E
:10378000FFF7F0FF204610BD0FB400B540F28823CC
:1037900083B0C1F6FF7304AA186852F8041BC0680E
:1037A000019201F011F9012000F064F8431C10B5FA
:1037B000044618D00B68581C04D10FE051F80C3F98
:1037C0005A1C0BD09C42F9D12046896800F080FA3F
:1037D00020460021BDE8104000F0C2BA0248BDE812
:1037E0001040FFF7D1BF10BD14A10000884208B5FA
:1037F0000AD0421C07D0013106D00448FFF7C4FFAD
:103800004FF0FF3008BD084608BD00BF28A10000EA
:1038100008B5431C0CD00B685A1C04D109E051F8C0
:103820000C3F5A1C05D09842F9D14868411C00D081
:1038300008BD0348FFF7A8FF4FF0FF30F8E700BFCF
:103840003CA1000010B540F28823C1F6FF7382B09E
:10385000044618680B464AF25C11C0680092C0F238
:103860000001224600F074FD02B0BDE81040FEF7F2
:1038700029BE00BF074C08B523680546986800F0CC
:103880004BFC2068C06800F047FC05B9FEE7FEF776
:1038900019FEFBE78802FF1F38B50546FFF76EFCEF
:1038A0000446FFF76BFC001BA842FAD338BD00BFEB
:1038B0004FF47A7303FB00F0FFF7EEBF10B5044638
:1038C000FFF7FEFB41F27023C1F6FF731C6010BDD1
:1038D00070B5FFF76BFC0F4C0F4E206870B1056898
:1038E000FFF74CFC281A00280CDC21683268C868F5
:1038F0002060002AF2D088689047EEE7BDE870406B
:10390000FFF74CBC2368D3E90001BDE87040FFF726
:1039100055BC00BF6C12FF1F7012FF1FF8B50646A2
:1039200072B6DFF858C00699DCF800708160C0E913
:103930000023D7B1D7E90045141B63EB0505002C24
:1039400075F100000ADA10E0D1E90045141B63EBC1
:103950000505002C75F1000003DB0F46F96800290E
:10396000F2D1FE60F16062B6F8BD19461046CCF89F
:103970000060FFF723FC3946F4E700BF6C12FF1F1D
:1039800008B572B6104B1A68824211D04AB1D1689C
:10399000814208D029B1CB68834205D0194600295D
:1039A000F9D162B608BD1146C068C86062B608BDEC
:1039B000D2681A602AB1D2E90001FFF7FFFB62B6B4
:1039C00008BDFFF7EBFBECE76C12FF1F38B50D46A7
:1039D000044600F009F96B1C09D00021204600F0D4
:1039E0003DF920460221BDE8384000F033B938BD2A
:1039F0002DE9F0410C4686B00646904600F0F4F8FA
:103A0000601C1DD03768791C1DD0124D0FCD01AC44
:103A10000FC42B6806AA381302EB80002360F9B2AA
:103A2000424650F8140CFEF753FF3046012100F0D7
:103A300015F93046002106B0BDE8F04100F00AB9A2
:103A400006B0BDE8F081044804492022FFF7FAFEE1
:103A50003768DAE790A100003C9C0000589C000009
:103A60000022FFF7C5BF00BF00238360C3608361EE
:103A7000C36103624362704700230422C0210370C4
:103A800042708370C37043718371C3710372437258
:103A9000837243738373037443748174C374012307
:103AA000437570471201B1FBF2F370B49CB2651E0E
:103AB000ADB241F6FE76B54214D8057805F0E005C2
:103AC000DBB245EA142404704370837A4901B1FBE8
:103AD000F2F202F01F0103F0E003194381720020AB
:103AE00070BC70470120FBE70379C171704700BFCC
:103AF0000379C3790B7070470B0A032B1FD8DFE8DB
:103B000003F017100902807CC9B240FA01F000F0FE
:103B100001007047027BCBB242FA03F202F00100CF
:103B200070474079C9B240FA01F000F001007047D7
:103B30000279CBB242FA03F202F001007047002092
:103B4000704700BF042915D011D940F207139942DC
:103B50002AD013D9B1F5407F1AD040F201339942EF
:103B60000FD1817C41F0020282740020704701294C
:103B700000D008D20379C37900207047B1F5837F64
:103B80000CD0032070470229F4D00329F9D1F1E7C2
:103B9000837C43F00101817400207047417941F03A
:103BA0004002427100207047427942F08003437125
:103BB0000020704700B583B000230193052811D879
:103BC000DFE800F00A0A03030303032001A9FEF75C
:103BD000CBFD019803B000BD012001A9FEF7C4FD93
:103BE0000198F7E70020F5E7F0B54A1C87B00C46CE
:103BF000016001D107B0F0BD114E0FCE01AD0FC570
:103C0000104A336810682B6027133946FEF7BEFF51
:103C100006A8E4B200EB87071F2C57F8141C08D83D
:103C200051F8243023F4E06242F4807041F824001B
:103C3000E0E70548054A064BE72100F02FF900BFF1
:103C40009CA30000B09C000050A40000C4A300008E
:103C5000D0A40000006800F083B800BFF0B507688A
:103C60000E46791C87B0044617D00F4D0FCD01AC1E
:103C70000FC42B683A132360F9B21EB1012E01D094
:103C800007B0F0BD06A800EB8203324653F8140CCF
:103C900007B0BDE8F040FEF7FDBD044804493122FD
:103CA000FFF7D0FD2768E0E7B0A300003C9C0000D0
:103CB000ECA3000008B50348034A044B8D2100F033
:103CC000EDF800BF50A4000064A50000D0A40000DF
:103CD0002DE9F041431C86B00646884621D0194B99
:103CE000194D071339461868FEF750FF0FCD01AC88
:103CF0000FC4286806AA02EB8707F6B220601F2EC1
:103D000057F8143C17D853F826104FEA082000F44F
:103D1000E06221F4E0610A4343F8262006B0BDE8E2
:103D2000F081084C09480A491722FFF78BFD3146FC
:103D30002068FEF72BFF0748074A084BE72100F0F1
:103D4000ADF800BFB09C0000DCA40000D8A30000C8
:103D500004A5000050A40000F0A40000D0A40000BE
:103D6000F0B5421C87B006460F463ED0234D0FCD1E
:103D700001AC0FC42B683213012F2360F6B224D09C
:103D80000FD206A901EB82031F2E53F8142C32D850
:103D900002EB860606F10470460100217160316075
:103DA00001E0022F01D007B0F0BD06A800EB8201B0
:103DB0001F2E51F8143C1ED803EB860606F1047240
:103DC0005601012070603060EDE706AB03EB820224
:103DD0001F2E52F8140C0ED800EB860606F1047163
:103DE0004E01002377603360DDE7054805491E2258
:103DF000FFF728FDBAE7FFF75DFF00BFDCA4000076
:103E0000D8A3000004A500004AF2785310B5C0F210
:103E10000003044603F13402083340F8042F236002
:103E2000FFF75EFA2046FEF7A7F9204610BD00BF57
:103E3000A0F10400FFF7E8BF10B50446FFF7E4FF68
:103E4000204600F022F8204610BD00BFA0F104007B
:103E5000FFF7F2BF094B10B50022044640F8043BBF
:103E6000FFF774FA4AF27853C0F2000303F1080234
:103E7000343384E80C00204610BD00BFF09B0000E6
:103E800003460846194600F02BB800F09BBB08B566
:103E9000062001F07DFE012005F02CFE1FB5054631
:103EA00008480068C06812B9074C224600E0074C79
:103EB00002928DE812001A4605492B4600F048FA96
:103EC000FFF7E5FF8802FF1FCC9B0000B8A50000AC
:103ED000C5A50000014600200246034602F08CBF43
:103EE00038B5054604480C46134620B10220294641
:103EF000224602F081FF38BDF96D0000014B1868C1
:103F0000704700BF8802FF1F70B505460C4609B90F
:103F1000002070BD18B183690BB900F04FF9204B38
:103F20009C4201D16C6808E01E4B9C4201D1AC68F8
:103F300003E01D4B9C4208BFEC68B4F90C30002B29
:103F4000E6D02846214600F039F8236B064633B107
:103F50002846216A98470028B8BF4FF0FF36A3894A
:103F60001B0603D52846216900F064FB616B41B153
:103F700004F14403994202D0284600F05BFB002381
:103F80006363A16C21B1284600F054FB0023A364B5
:103F900000F07EF90023A38100F07BF9304670BD6C
:103FA000F4A5000014A6000034A60000024B014650
:103FB0001868FFF7A9BF00BF8802FF1F8A892DE993
:103FC000F041054610070C4657D44B68002B02DC25
:103FD0000B6C002B18DDE66AB6B102F480520023A8
:103FE00092B22F682B600AB1626D10E0216A2846F8
:103FF0000123B047411C024609D12B683BB11D2B60
:1040000001D0162B47D12F600020BDE8F081A38995
:104010005B0705D56368D21A636B0BB1236CD21AA8
:10402000E66A216A00232846B047461CA38905D1C9
:104030002A681AB11D2A01D0162A19D100226260FD
:10404000D9042269226004D5421C01D12B6803B92E
:104050006065616B2F600029D6D004F1440399425A
:1040600002D0284600F0E6FA00206063BDE8F08147
:1040700043F04003A381BDE8F0810F69002FC3D056
:1040800093070E6808BF4B690F6018BF0023C7EB8A
:1040900006088B6012E0A38943F04003A3814FF030
:1040A000FF30BDE8F0812846216AA66A3A464346B9
:1040B000B0470028EFDD0744C0EB0808B8F1000F57
:1040C000F1DCA1E738B50B6905460C46DBB118B148
:1040D00083690BB900F072F80C4B9C4201D16C68FB
:1040E00008E00B4B9C4201D1AC6803E0094B9C42B9
:1040F00008BFEC68B4F90C302BB128462146BDE866
:104100003840FFF75BBF002038BD00BFF4A50000BA
:1041100014A6000034A60000014620B9044B05494E
:10412000186800F0B5B9044B1868FFF7CBBF00BFA3
:1041300058A60000C54000008802FF1F014900F09A
:10414000A7B900BFC5400000002310B504460360B6
:104150004360836081814366C281036143618361FF
:1041600019465C30082200F04FFA054B6362054B9C
:10417000A362054BE362054B2462236310BD00BFBD
:10418000655C00008B5C0000C35C0000E75C000025
:1041900070B568234D1E5D430E4605F1740100F0B5
:1041A0008DFA044640B1002180E842000C30A06046
:1041B00005F1680200F028FA204670BD836910B549
:1041C000044633BB8364C3640365124B124A1B6805
:1041D0008262984204BF0123836100F01FF860608F
:1041E000204600F01BF8A060204600F017F80421DC
:1041F000E06000226068FFF7A7FFA06809210122A4
:10420000FFF7A2FFE06812210222FFF79DFF0123C2
:10421000A36110BD58A600003D410000F8B51B4B3E
:104220001E68B369074613B93046FFF7C7FF483623
:10423000B4687368013B04D4B4F90C5075B16834A8
:10424000F8E733682BB938460421FFF7A1FF306047
:1042500008B13668ECE70C233B60F8BD4FF6FF73FE
:10426000E3810123A38165662560A5606560256102
:104270006561A56104F15C002946082200F0C4F9DB
:104280006563A563A564E5642046F8BD58A60000F3
:104290007047704738B5074B074CE41AA4101D4609
:1042A00024B1013C55F824309847F9E7BDE838407F
:1042B00005F028BCD402FF1FD802FF1FF7B50F4638
:1042C000114601AA054603F057FC064608B900202E
:1042D00029E02846FFF7A2FF04460028F7D0284629
:1042E0003946019A4FF4DB7301F018FB002806DA17
:1042F0000025FFF7CDFFA581FFF7CBFFE7E70B4BCD
:1043000063620B4BA3620B4BE3620B4B2363F3051E
:10431000E081A681246205D5284621460022022399
:1043200000F028F8204603B0F0BD00BF655C000037
:104330008B5C0000C35C0000E75C00000A46034998
:10434000034608681946FFF7B9BF00BF8802FF1F80
:104350000EB403B5014603AB054853F8042B0068BF
:10436000019300F029FA02B05DF804EB03B0704746
:104370008802FF1F00F000B82DE9F8430C46904674
:104380001E46054618B183690BB9FFF717FF3D4B71
:104390009C4201D16C6808E03B4B9C4201D1AC6867
:1043A00003E03A4B9C4208BFEC68A38903F4847392
:1043B000B3F5847F03D128462146FFF783FEE76AE1
:1043C0000FB91D232BE0012E04D0022E2BD056B3A3
:1043D000162324E028462146FFF774FEA28902F442
:1043E000805292B20AB1606D05E0216A28463346D8
:1043F000B847411C14D0A3895A0706D56368C01A70
:10440000636B4BB1236CC01A06E01B0704D523680D
:1044100013B122699B1A18448044002603E02B60E4
:104420004FF0FF392BE023691BB92846214600F0E5
:1044300073F828462146FFF745FE81460028EFD154
:104440002846216A42463346B8470130E8D0616BBE
:1044500041B104F14403994202D0284600F0EAF841
:104460000023636323692360A389002123F402638B
:104470006160A38104F15C00082200F0C5F84846A1
:10448000BDE8F883F4A5000014A6000034A60000DF
:104490002DE9F8438046894600F14804002694B18E
:1044A000A5686768013F0CD4AB89012B07D9B5F922
:1044B0000E30013303D040462946C84706436835CD
:1044C000F0E72468EBE73046BDE8F88370B50E4BA3
:1044D0000E4CE41AA41000251E46A54204D056F83E
:1044E000253098470135F8E705F006FB084C094BE5
:1044F000E41AA41000251E46A54204D056F8253023
:1045000098470135F8E770BDC802FF1FC802FF1FBA
:10451000D402FF1FC802FF1FF0B58B899D0791B021
:1045200006460C4626D4B1F90E10002909DAA389F3
:1045300013F0800F4FF0000514BF40274FF4806741
:104540000DE001AA03F050FB0028F0DB029D05F40A
:104550007045A5F500514D424D414FF480673046FE
:10456000394600F0ABF860B9A3899A051DD443F031
:104570000203A38104F147032360236101236361E4
:1045800013E00B4BB362A389206043F08003A38147
:10459000206167614DB13046B4F90E1003F042FE60
:1045A00018B1A38943F00103A38111B0F0BD00BF8E
:1045B0003D410000024B0146186800F07FB800BF83
:1045C0008802FF1F024B0146186800F033B800BF95
:1045D0008802FF1F10B5C9B202449042034606D0BC
:1045E0001C788C4200F10100F7D1184610BD002064
:1045F00010BD10B5431E0A44914204D011F8014B7E
:1046000003F8014FF8E710BD02440346934202D07D
:1046100003F8011BFAE7704738B502FB01F42146A5
:1046200000F04CF8054618B100212246FFF7ECFFD8
:10463000284638BD30B500293DD051F8042C0B1F59
:104640001D49002AB8BF9B180A680C4612B95A6067
:104650000B6030BD93420DD219685818904201BFCB
:104660005A5852181A6042685A60236030BD994205
:1046700003D80A4651680029F9D1146815199D42DA
:104680000AD11B682344D0188842136013D10868EC
:10469000034413604B680DE002D90C23036030BD66
:1046A0001C681819884204BF08684968596004BF2B
:1046B00000191860536030BD7812FF1F70B5CC1C14
:1046C00024F0030408340C2C38BF0C24002C0646BC
:1046D00003DA0C233360002070BD8C42F9D3204AEA
:1046E000136810461946A1B10A68121B0ED40B2A92
:1046F00003D90A608B188C501FE08B420DBF5A689B
:104700004A685A60026018BF0B4616E00B464968BB
:10471000E9E7144D2B681BB9304601F03BF92860DE
:104720003046214601F036F9421C0346D1D0C51C63
:1047300025F0030585420AD11C6003F10B001A1D08
:1047400020F00700821A0AD05142995070BD3046BD
:10475000E91A01F01FF90130BBD02B46ECE770BD20
:104760007812FF1F7412FF1F9368013B002B10B5D6
:10477000936009DA9469A34202DBCBB20A2B03D11E
:10478000BDE8104002F066BA1368581C106019703A
:10479000C8B210BDF8B506460F461446D518AC424F
:1047A00008D0304614F8011B3A46FFF7DDFF431CE2
:1047B000F5D100E00020F8BD2DE9F0439DB00D4695
:1047C00090460393064618B183690BB9FFF7F6FCD0
:1047D000754B9D4201D1756808E0744B9D4201D133
:1047E000B56803E0724B9D4208BFF568AB891C07B2
:1047F0000AD52B6943B10023099320238DF8293072
:1048000030238DF82A3041E03046294602F088FAFC
:104810000028F0D04FF0FF30C2E0039A111D12685B
:104820000391002ABBBF524243F002030792079252
:10483000B8BF0493013423782E2B7BD0DFF880811E
:10484000217840460322FFF7C5FE38B1049AC8EB31
:1048500000004023834013430493013421785548DA
:104860008DF82810062204F10108FFF7B3FE002896
:1048700000F08580504B002B78D1039B073323F049
:10488000070308330393099B3B44099343461C46A3
:1048900013F8012B1AB9B4EB08090ED002E0252A4F
:1048A000F5D1F8E73046294642464B46FFF772FFFE
:1048B000013070D0099B4B4409932378002B6AD0B8
:1048C00000234FF0FF3204930793059206938DF86F
:1048D00053301A9304F101084446DFF8E890217838
:1048E00048460522FFF776FE08F10108049B30B127
:1048F000C9EB00000122824013430493ECE7D80681
:1049000044BF20228DF85320190744BF2B228DF875
:10491000532022782A2A80D0079923461C46013347
:104920002278303A092A03D80A2000FB0121F5E752
:10493000079180E763782A2B0AD1039B1A1D1B6815
:104940000392002BB8BF4FF0FF330234059375E795
:10495000611C00220C4601312378303B092B03D81F
:104960000A2000FB0232F5E7059267E703AB0093EC
:10497000304604A92A46114B00F0C4F807E003AB07
:104980000093304604A92A460C4B00F075FB421CEC
:1049900007467FF478AFAB895B063FF53BAF0998DC
:1049A0001DB0BDE8F08300BFF4A5000014A6000010
:1049B00034A6000066A60000054B000095470000E5
:1049C00062A600005CA6000030B51346044A054606
:1049D0000C46106829462246BDE83040FFF7ECBE81
:1049E0008802FF1F2DE9F04788B0002B149F129911
:1049F000109EDDF84CA01D46B8BF05F1004327F01E
:104A00002007B6BF1D4600232D231446B8BF144609
:104A1000462F0B7003D0452F03D1013601E003234D
:104A200000E002238DE8480406AB039307AB049330
:104A300022462B4602F0DCFA472F804602D1119B1A
:104A4000DB0726D5462F08EB060911D198F8003070
:104A5000302B0AD1204629460022002304F070FFA3
:104A600018B9C6F10106CAF80060DAF800309944B6
:104A7000204629460022002304F062FF08B1CDF849
:104A80001C90079B4B4504D25A1C079230221A7087
:104A9000F7E7079B159AC8EB03034046136008B07D
:104AA000BDE8F08773B503460029B8BF494203F853
:104AB000022BB4BF2D222B220929427019DD0DF1E2
:104AC000070426460A2291FBF2F502FB151130314C
:104AD000092D04F8011D2946F4DC3031651E04F867
:104AE000011CB5421A460AD215F8012B03F8012B16
:104AF000F7E730241A46214402F8024B5970101A85
:104B000002B070BD2DE9F04F91B08B4615461E46A0
:104B10001A9F044603F096FBD0F800A0504601F01F
:104B2000F0F800230E933B680990073323F0070346
:104B3000D3E9000103F108029BF818803A60CBE941
:104B4000120100F0FDFE0128DBE9120119D100225B
:104B5000002304F0FFFE10B12D238BF84330A04B4F
:104B6000A04FB8F1470F88BF1F460323CBF8103082
:104B7000DBF8003023F00403CBF800304FF00009DD
:104B8000A1E000F0DDFEDBF8003048B9964A974F0F
:104B9000B8F1470F88BF17460322CBF81020E9E78A
:104BA000DBF804209BED127B571C8DED0A7B01D1B5
:104BB000062209E0B8F1670F02D0B8F1470F05D11E
:104BC000002A40F0C7810122CBF80420DBF8042042
:104BD000CDF8108043F480638DE80C00CBF80030F2
:104BE0000DF1330302930DAB03930EAB059300233A
:104BF00006932046DDE90A23FFF7F4FE08F0DF0301
:104C0000472B07460AD10D9BD81C03DBDBF8042099
:104C1000934237DDA8F102085FFA88F8B8F1650F12
:104C20000D9915D8013942460BF150000D91FFF74F
:104C300039FF0E9A8318012A8146CBF8103003DC25
:104C4000DBF80020D10738D50133CBF8103034E041
:104C5000B8F1660F18D10029DBF8043009DDCBF874
:104C600010101BB9DBF80020D20721D501330B440B
:104C70001CE01BB9DBF80020D00701D5023315E09A
:104C8000012313E04FF067080D9B0E9A934207DB58
:104C9000DBF80020CBF81030D10709D5013305E04F
:104CA000002BD4BFC3F1020301231344CBF810300F
:104CB0000D9BCBF858304FF000099DF8333013B1FD
:104CC0002D238BF843300096204659460FAA2B46D9
:104CD00000F05CF9013002D14FF0FF3052E1DBF817
:104CE00000305A0505D4204629463A46DBF81030F4
:104CF00008E1B8F1650F40F2D080DBE91201002233
:104D0000002304F01DFE50B320462946384A0123F3
:104D1000B0470130E0D00E9B0D9A9A4209DBDBF8D8
:104D20000030D80705D4DBF800309F0700F1108170
:104D300007E1204629465246099BB0470130CBD0B7
:104D400000270E9B013B9F42EDDA204629460BF1DE
:104D50001A020123B0470130BED00137F1E70D9BA5
:104D6000002B29DC20462946214A0123B047013087
:104D7000B2D00D9B2BB90E9B1BB9DBF80030D907C5
:104D8000D1D5204629465246099BB0470130A3D0D1
:104D90004FF000080D9B5B4298452046294608DAF3
:104DA0000BF11A020123B047013095D008F1010838
:104DB000F0E73A460E9BA5E0DBF858200E9B9A429E
:104DC000A8BF1A46002A914602DC4FF000081CE0FA
:104DD000204629463A464B46B0470130F5D17BE79D
:104DE00071A600006DA6000079A6000075A600005F
:104DF000C6A60000204629460BF11A020123B0473F
:104E000001303FF469AF08F10108DBF85830B9F11F
:104E1000000FACBFC9EB03021A469045EADB07EB73
:104E200003080D9A0E9B9A4210DBDBF80030DA077C
:104E30000CD40E9A1744C8EB07030D9FD21B934264
:104E4000A8BF1346002B1F4608DC0EE0204629466B
:104E50005246099BB0470130EBD13DE72046294639
:104E60004246B04701303FF437AF4FF000080AE048
:104E7000204629460BF11A020123B04701303FF4C6
:104E80002BAF08F101080D9A0E9B002FA3EB020334
:104E9000A8BFDB1B9845EBDB45E70E9A012A01DC36
:104EA000DB0736D5204629463A460123B047013074
:104EB0003FF412AF204629465246099BB0470130C5
:104EC0003FF40AAFDBE912010022002304F038FDB1
:104ED000E8B90E9B204629467A1C013B1DE020467E
:104EE00029460BF11A020123B04701303FF4F4AE1A
:104EF00001370E9B013B9F42F1DB204629460BF117
:104F000050024B46B04701307FF40DAFE4E6002776
:104F1000EFE7204629463A460123B0470130ECD15D
:104F2000DAE6204629460BF119020123B047013089
:104F30003FF4D2AE0137DBF80C300F9A9B1A9F4238
:104F4000EFDBDBF80C000F9B9842B8BF184619E066
:104F50000027F0E743F480638DE80C00CBF80030C5
:104F60000DF1330302930DAB03930EAB05930023B6
:104F70000693CDF810802046DDE90A23FFF732FDC5
:104F8000074640E611B0BDE8F08F00BF2DE9F843B9
:104F900091461F468A680B69DDF820809342B8BFAE
:104FA0001346C9F8003091F8432006460C4612B16A
:104FB0000133C9F800302368990642BFD9F80030A0
:104FC0000233C9F80030256815F006051CD094F8A6
:104FD00043302268003318BF012392061FD5E11821
:104FE0005A1C302081F84300224494F8451082F87E
:104FF0004310023313E03046394604F1190201230D
:10500000C047013007D00135E368D9F800209B1A6A
:105010009D42F0DBDBE74FF0FF30BDE8F883304620
:10502000394604F14302C0470130F4D02268D9F870
:105030000050E36802F00602042A08BF5D1B2269E3
:10504000A3680CBF25EAE57500259342C4BF9B1AEF
:10505000ED184FF00009A9450ADA3046394604F147
:105060001A020123C0470130D5D009F10109F2E746
:105070000020BDE8F88300002DE9FF410C461746EB
:10508000227E6E2A984606460A9B01F1430100F0F3
:10509000A98012D8632A23D00AD8002A00F0B6804B
:1050A000582A40F0C58084F84520DFF8F8E151E047
:1050B000642A1ED0692A1CD0BAE0732A00F0AA80A4
:1050C00009D86F2A2BD0702A40F0B280226842F0B3
:1050D0002002226039E0752A21D0782A35D0A7E055
:1050E0001A68111D1960136884F8423004F14205F2
:1050F000A2E020681A6810F0800F03D0101D18601D
:10510000136805E04506F9D5101D1860B2F90030A6
:10511000002B3BDA2D225B4284F8432036E02068E6
:105120001A6810F0800F03D0101D1860136804E097
:105130004006F9D5101D18601388227EDFF864E15F
:105140006F2A0CBF08220A221CE07822DFF858E1FF
:1051500084F845202268186812F0800F00F10405D9
:105160001D6001D0036802E05506FBD50388D00717
:1051700044BF42F0200222601BB9226822F02002C4
:1051800022601022002084F8430002E0DFF814E1DE
:105190000A226568A560002DA2BF206820F00400E7
:1051A000206003B965B10D46B3FBF2F002FB10338A
:1051B0001EF8033005F8013D03460028F4D100E055
:1051C0000D46082A0BD12368DA0708D523696268DF
:1051D0009A42DEBF302305F8013C05F1FF35491B3B
:1051E00021612EE025681A68606915F0800F03D0F0
:1051F000151D1D60136808E015F0400F02F104054D
:105200001D60136801D0188000E01860002323613E
:105210000D4616E01A68111D196015686268284667
:105220000021FFF7D7F908B1401B6060636804E014
:1052300004F1420584F8422001232361002384F80D
:105240004330CDF800803046214603AA3B46FFF7A5
:105250009DFE013002D14FF0FF301FE0304639464D
:105260002A462369C0470130F5D023689B0705D43F
:10527000E068039B9842B8BF18460FE00025E3683A
:10528000039A9B1A9D42F3DA3046394604F119021B
:105290000123C0470130DED00135F0E704B0BDE89E
:1052A000F08100BF7DA600008EA600002DE9F04F22
:1052B00099468B6815465A1EB2F5AE7F81BF6FF4D2
:1052C000AE7203EB020C40F25D138B600B680F466D
:1052D00043F4F06387B047F81C3B4FF0000B0646E1
:1052E0000C4698BF4FF0000CB8465A46CDF80CB0AB
:1052F000CDF808B0DA46CDF804B0A168002900F076
:10530000EC802B681B78492B70D016D8392B0DD820
:10531000312B40D22D2B46D002D82B2B43D0DCE0B2
:105320002E2B00F09280302B23D0D6E0452B00F0BE
:105330009580462B77D0412B0CE0652B00F08E80BA
:105340000AD8542B75D002D84E2B34D0C5E0592B37
:1053500075D0612B46D0C0E06E2B2CD004D8662BC4
:1053600061D0692B42D0B8E0742B62D0792B66D023
:10537000B3E0206810F4807F0DD020F08000206022
:105380000AF1010ABCF1000F00F08A8001310CF132
:10539000FF3CA16084E012EB0B0F40F09E8021687F
:1053A00021F4C07105E02168080640F1968021F0E3
:1053B0008001216070E06AB9BAF1000F0CD1216858
:1053C00001F4E060B0F5E06F06D121F4F0612160F6
:1053D000012261E0022A5ED0BBF1010F1ED0BBF1B9
:1053E000040F1AE0012A78D1022255E0BBF1000F28
:1053F0000ED1BAF1000F73D1216801F4E060B0F56D
:10540000E06F71D121F4F06121604FF0010B43E0B6
:10541000BBF1030F02D0BBF1050F5ED10BF1010B05
:105420005FFA8BFB38E0BBF1020F56D14FF0030B54
:1054300032E0BBF1060F50D14FF0070B2CE0BBF16F
:10544000070F4AD14FF0080B26E02168880544D5A4
:1054500021F420712160CDF804A01DE0216801F441
:10546000A060B0F5806F04D0480536D5BAF1000FC2
:105470003AD088055CBF0198CDF80C8021F4F0612A
:1054800058BFC0EB0A0041F4C07158BF02902160C0
:105490004FF0000A00E0032288F8003008F101080C
:1054A000A368013BA3602369013323616B68013B5F
:1054B000002B6B6003DD2B6801332B601DE7D4F8F4
:1054C0008031059230462946CDF810C09847DDF866
:1054D00010C0059A00283FF410AFBAF1000F03D0B6
:1054E000236823F480732360013A012A0ED8B8455B
:1054F0000AD9D4F87C3118F8011D30462A4698475D
:105500002369013B2361F2E70125AEE00BF1FF3394
:10551000062B22D8BBF1020F12D9ABF1030B5FFAB5
:105520008BFBCBEB080BD84517D0D4F87C3118F89F
:10553000011D30462A4698472369013B2361F2E763
:10554000B845E1D9D4F87C3118F8011D30462A4617
:1055500098472369013B2361F2E72368DA052CD5DC
:105560005B050CD5B845CFD9D4F87C3118F8011DAE
:1055700030462A4698472369013B2361F2E718F831
:10558000011C2369652903F1FF3308F1FF3B236107
:105590000DD045290BD0D4F87C3130462A469847A7
:1055A000236918F8021C013BA8F1020B2361D4F80F
:1055B0007C3130462A469847D846256815F01005B4
:1055C00052D188F80050236803F4C063B3F5806FAC
:1055D00005D1019BC3EB0A035A426BB916E0029B4B
:1055E000A3B1039B2A46591C30460A2301F0F4F963
:1055F000029BDDF80C80C21A04F26F13984528BF95
:1056000004F5B77840461B4900F0DEFA30463946CB
:10561000002200F0CDFB2268D9F8003012F0020F12
:1056200006460F4603D01A1DC9F8002006E012F006
:10563000040F03F10402C9F8002003D01B68C3E97A
:1056400000670DE0D3F8008000F07AF910B900F09F
:1056500073FA03E03046394604F0ECF9C8F800006C
:10566000E3680133E36000E00025284607B0BDE8A9
:10567000F08F00BF9FA600002DE9F04115468A6813
:1056800080460C4632B98A69002A0CBF01224FF0CD
:10569000FF328A602268D1065FBF1A68111D196047
:1056A00017680026A06900BB2368DA065EBF2B6876
:1056B0001B783B702A686B6802F101022A60A268BD
:1056C00003F1FF3302F1FF326B6006F1010658BFB0
:1056D0000137A260EAB1002BE4DCD4F88031404607
:1056E000294698470028DDD013E0012807D12B6810
:1056F00062691B78D35C002BD6D1C6B109E00228C1
:1057000007D12B680B4A1B78126813445B781B0780
:10571000CAD5236813F0100305D1E2680132E260B4
:10572000A26902B13B7023691E4426610020BDE8D6
:10573000F08100BF8C02FF1F2DE9F04F9A46734B9A
:105740000C468346164693E8070087B003AB83E810
:1057500007006F4BA1696F4A032918BF1A46A36857
:1057600000925A1EB2F5AE7F81BF6FF4AE7503EBA7
:10577000050840F25D13A360236804F11C0943F49B
:105780005063236098BF4FF000084F4600233268F3
:10579000019303A951F8230011780222FEF71AFFA2
:1057A000019B002836D0012B0BD162682AB9082250
:1057B0006260226842F400722260226822F4A062D1
:1057C0000BE0022B0AD1226802F4C061B1F5007F20
:1057D00020D11021616042F480722260A268511EC3
:1057E000A160BAB13268511C316012783A707268A7
:1057F000013A002A07F1010572600ADCD4F8802121
:105800000193584631469047002840D12F46019BCE
:1058100000E02F460133032BB9D163680BB90A238B
:10582000636063683C496069C91A00F0C3F83D468B
:105830000027A36863B3316860690A78805C38B375
:10584000302A22680AD1100508D50137B8F1000FB7
:105850000AD0013308F1FF38A36005E022F410629A
:1058600022600B782B7001357368013B002B73604D
:1058700003DD33680133336005E0D4F880315846E6
:105880003146984720B9A368013BA360D1E70027C0
:105890002368D9050DD54D4509D915F8011CD4F853
:1058A0007C3158463246984705F1FF3845464D450C
:1058B00027D0226812F010021BD12A706368009E64
:1058C00058464946B0472268DAF8003012F0200FF7
:1058D00007D1D20705D51A1DCAF800201B68188009
:1058E00004E01A1DCAF800201B681860E368013341
:1058F000E360C9EB05053D4427693D44256100206F
:1059000000E0012007B0BDE8F08F00BFA4A60000B2
:10591000E56A0000D9690000C0A6000038B5074C50
:10592000054600202060084611461A46FCF778FC20
:10593000431C02D1236803B12B6038BD1013FF1F35
:105940000A4631F0004110B503461BD00F48A2F5BE
:105950008014844210D902F1FF420C4802F5E002A3
:10596000824209D9B1F5801F08D3094A914207D173
:10597000B3FA83F0400910BD042010BD032010BD10
:10598000002010BD0028E6D1022010BDFFFFDF7F00
:105990000000F07F38B5064C00230546084623601A
:1059A000FCF77AFD431C02D1236803B12B6038BD9C
:1059B0001013FF1FF0B50A785E2A13BF4B1C8B1C17
:1059C0004A78002108BF0121441E00F1FF0504F8B8
:1059D000011FAC42FBD10AB9581EF0BDC1F1010450
:1059E000E7B2875419782D2903F1010605D05D2906
:1059F0000ED079B10A463346F2E75D785D2DF9D0D5
:105A00009542F7DB02330132AA428754FBDBE9E718
:105A10003046F0BD1846F0BD00290CBF022200221E
:105A20004FF4806300F000B82DE9F0411D463D4B76
:105A30001E6804460F46904626B1B36913B9304636
:105A4000FEF7BCFB384B9C4201D1746808E0374B31
:105A50009C4201D1B46803E0354B9C4208BFF46816
:105A6000B8F1020F5AD8002D58DB30462146FEF718
:105A700029FB00236360A361A3891B0603D530467D
:105A80002169FEF7D7FDA389B8F1020F23F0830344
:105A9000A38112D037BB002D08BF4FF48065284684
:105AA000FEF788FD0746C8B94FF48060FEF782FD17
:105AB000074688B94FF0FF3000E00020A38943F08B
:105AC0000203A3810023A36004F147032360236141
:105AD00001236361BDE8F0814FF48065A38943F041
:105AE0008003A381B8F1010F01BFA38943F0010333
:105AF000A3816B4208BFA3610E4BB362A3892760E9
:105B000003F0080080B22761656148B113F0030F0C
:105B100018BF0025A5600020BDE8F0814FF0FF30E0
:105B2000BDE8F0818802FF1FF4A5000014A6000064
:105B300034A600003D410000004870470000C07FCF
:105B40001F2938B504460D4604D9162303604FF0CB
:105B5000FF3038BD426C12B152F821304BB92046AB
:105B600000F030F82A4601462046BDE8384000F0F3
:105B700017B8012B0AD0591C03D11623036001204A
:105B800038BD002442F8254028469847002038BDFB
:105B9000024B01461868FFF7D3BF00BF8802FF1F02
:105BA00038B5074C0023054608461146236003F02C
:105BB00099FF431C02D1236803B12B6038BD00BF9D
:105BC0001013FF1F03F086BF0EB400B59CB04FF456
:105BD0000271ADF814106FF00041049107914FF677
:105BE000FF711DABADF81610084953F8042B029055
:105BF00006900868019302A902F0CCFF029B0022E4
:105C00001A701CB05DF804EB03B070478802FF1FE8
:105C10000EB430B59CB01FAC4FF4017254F8045B65
:105C2000ADF814200290069000F06BF80B4B0B932C
:105C300000230F9314934FF6FF73ADF81630084B03
:105C40000390079002A9186801942A46234603F09E
:105C5000EDF81CB0BDE8304003B07047875C000031
:105C60008802FF1F10B50C46B1F90E1003F02CFA94
:105C70000028ABBF636DA3891B1823F48053ACBF0E
:105C80006365A38110BD002070472DE9F0411D46DA
:105C90008B89DB0507460C46164605D5B1F90E1073
:105CA0000022022302F0D2FAA389B4F90E1023F4E1
:105CB0008053A381384632462B46BDE8F04101F0BF
:105CC0001DB810B50C46B1F90E1002F0BFFA431C16
:105CD000A38915BF606523F4805343F48053A381E7
:105CE00018BFA38110BDB1F90E1001F0E1B810F892
